S0120000426174746C65536869702E7372656322
S11300000C942A000C9434000C9434000C943400A6
S11300100C9434000C9434000C9434000C9434008C
S11300200C9434000C9434000C9434000C9434007C
S11300300C9434000C9434000C9434000C9434006C
S11300400C9434000C9434000C9434000C9434005C
S11300500C94340011241FBECFE5D4E0DEBFCDBF25
S11300600E9436000C9409020C940000CF93DF9395
S113007000D000D000D0CDB7DEB761E0CE01059648
S11300800E944F00CE0101960E945700CE010196B6
S11300900E94CD00CE0101960E941A01F7CF2FEFE6
S11300A024BB27E021BBFC01618310820895FC017D
S11300B080EE808380ED818380EB828380E783837D
S11300C00895FC01E60FF11D81E090E09C0102C05F
S11300D0220F331F4A95E2F7A9018081482B408300
S11300E00895FC01E60FF11D81E090E09C0102C03F
S11300F0220F331F4A95E2F7A901409580814823D6
S113010040830895FC01808185BB818185BB828108
S113011085BB838185BB0E9406020895FF920F93DD
S11301201F93CF93DF9300E010E0F12C70E0C1E067
S1130130D0E018C0AE01022E02C0440F551F0A942D
S1130140E2F7FA01EA23FB234E175F0709F4615033
S11301502F5F3F4F2430310569F70F5F1F4F043085
S1130160110539F0FC01A191CF01B0E02F2D372FFB
S1130170E1CF81E0611101C080E0DF91CF911F9157
S11301800F91FF900895FC0180EE808380ED8183C0
S113019080EB828380E7838308950F931F93CF932B
S11301A0DF93EC0140E060E00E94610000E010E0B9
S11301B0688179818A819B810E94B701811109C07C
S11301C01123E9F0402F612FCE010E9471001150DC
S11301D023C0813049F41330E9F0402F612FCE0160
S11301E00E9471001F5F18C0823049F40023A1F0FF
S11301F0402F612FCE010E94710001500DC0833049
S113020049F4033049F0402F612FCE010E94710060
S11302100F5F02C0843049F0402F612FCE010E944D
S11302206100CE010E948200C3CFDF91CF911F9164
S11302300F910895FF920F931F93CF93DF93EC01D7
S113024040E060E00E94610040E061E0CE010E9475
S1130250610000E010E0688179818A819B810E94BD
S1130260B701811110C0112309F440C061E0610F8E
S1130270402FCE010E9471001150402F612FCE01FA
S11302800E9461006AC0813099F4123009F44BC0B5
S1130290402F612FCE010E947100FF24F394F10ED0
S11302A062E0610F402FCE010E9461001F2D55C0F6
S11302B08230E1F4002309F450C0402F612FCE01B5
S11302C00E947100402FFF24F394F10E6F2DCE0194
S11302D00E9471000150402F612FCE010E946100E5
S11302E0402F6F2DCE010E94610037C08330D9F4B6
S11302F0033099F1402F612FCE010E947100402FED
S1130300FF24F394F10E6F2DCE010E9471000F5F54
S1130310402F612FCE010E946100402F6F2DCE012E
S11303200E9461001AC08430C1F463E0CE010E94CF
S11303308E008823B1F0CE010E94C300CE010E943A
S1130340CD0040E060E0CE010E94610040E061E049
S1130350CE010E94610000E010E0CE010E94820004
S11303607ACFDF91CF911F910F91FF900895EF9273
S1130370FF920F931F93CF93DF9300D000D0CDB79C
S1130380DEB769837A838B839C83F12C01E010E0D0
S1130390E12C01C0FE2C40B324E02F0DC80102C0A3
S11303A0880F991F2A95E2F750E0482359238417B0
S11303B0950759F49FEF29E688E191502040804049
S11303C0E1F700C000008F2D16C0839B0BC09FEF88
S11303D029E688E1915020408040E1F700C0000008
S11303E084E009C0CE0101960E948200F39494E057
S11303F0F912D1CFCFCF0F900F900F900F90DF91C4
S1130400CF911F910F91FF90EF9008958FEF85BBCF
S10904100895F894FFCFEB
S9030000FC
